:100000000C942A000C9447000C9447000C94470071
:100010000C9447000C9447000C9447000C94470044
:100020000C9447000C9447000C9447000C94470034
:100030000C9447000C9447000C9447000C94470024
:100040000C9447000C9447000C9447000C94470014
:100050000C94470011241FBECFE5D4E0DEBFCDBF16
:1000600010E0A0E6B0E0E4EFF0E002C005900D92F1
:10007000A036B107D9F710E0A0E6B0E001C01D92AC
:10008000A036B107E1F70E9459000C9478000C9457
:100090000000D098D89AA098A89A8E9A96988D9A8F
:1000A0009598089522EC2FBD29E12EBD97BD86BD00
:1000B00008950E9449008FE19EE40E94520086B597
:1000C00097B5845398409BBD8ABDC89907C086B533
:1000D00097B5845398409BBD8ABD969A9899F5CF61
:1000E00086B597B5845F91409BBD8ABD9698EDCF4C
:0400F000F894FFCFB2
:00000001FF
